:020000040800F2
:100000006006002011020008190200081B02000807
:100010001D0200081F020008210200080000000065
:1000200000000000000000000000000023020008A3
:10003000250200080000000027020008290200082D
:100040002B0200082B0200082B0200082B020008DC
:100050002B0200082B0200082B0200082B020008CC
:100060002B0200082B0200082B0200082B020008BC
:100070002B0200082B0200082B0200082B020008AC
:100080002B0200082B0200082B0200082B0200089C
:100090002B0200082B0200082B0200082B0200088C
:1000A0002B0200082B0200082B0200082B0200087C
:1000B0002B02000800000000000000002B020008D6
:1000C0002B02000800000000000000002B020008C6
:1000D000000000002B0200082B02000800000000B6
:1000E0002B0200082B0200080000000000000000A6
:1000F0000000000000000000000000000000000000
:100100000000000000000000000000002B020008BA
:1001100000000000000000002B0200082B02000875
:100120002B0200082B0200082B0200082B020008FB
:100130002B0200080000000000000000000000008A
:100140002B0200082B0200082B0200082B020008DB
:100150002B0200082B0200082B0200082B020008CB
:100160002B0200082B0200082B02000800000000F0
:100170002B0200082B020008000000000000000015
:100180002B0200082B0200082B02000800F002F8E6
:1001900000F02EF80AA090E8000C82448344AAF1F3
:1001A0000107DA4501D100F023F8AFF2090EBAE8F1
:1001B0000F0013F0010F18BFFB1A43F0010318479B
:1001C0008002000090020000002300240025002689
:1001D000103A28BF78C1FBD8520728BF30C148BFAA
:1001E0000B6070471FB500F025F91FBD10B510BD9D
:1001F00000F031F81146FFF7F5FF00F08FF800F03E
:100200004FF803B4FFF7F2FF03BC00F057F800000B
:100210000948804709480047FEE7FEE7FEE7FEE79A
:10022000FEE7FEE7FEE7FEE7FEE7FEE704480549D6
:10023000054A064B70470000CD0200088D010008FA
:1002400060000020600600206002002060020020A4
:10025000704770477047754600F02CF8AE460500B1
:100260006946534620F00700854618B020B5FFF7D1
:10027000DDFFBDE820404FF000064FF000074FF0D3
:1002800000084FF0000B21F00701AC46ACE8C009B4
:10029000ACE8C009ACE8C009ACE8C0098D467047BD
:1002A00010B50446AFF300802046BDE81040FFF7CC
:1002B000A8BF000000487047000000200149182036
:1002C000ABBEFEE726000200704700001048006841
:1002D00040F470000E4908600E48006840F00100CC
:1002E0000C49086000208860084600680A490840F8
:1002F000084908608814C8600846006820F4802017
:10030000086000208861C80301498039086070478F
:1003100088ED00E000100240FFFFF6EA4049C96C9A
:1003200041F001013E4AD1641146C96C41F40051CB
:10033000D1643C4989683B4A916011468968916063
:1003400039490968C2F8001337490968C2F800132F
:1003500035490968C2F8001333490968C2F8001327
:1003600031490968C2F800131146D1F8001341F46D
:100370008031C2F800131146896841F080519160C4
:100380001146C968D1601146C968D1601146C96873
:10039000D1604FF09041096841F400314FF0904234
:1003A0001160204A91624FF09041096841F4803118
:1003B0004FF0904211601146496A41F001015162CB
:1003C0001749C96C41F00201154AD16417490968FF
:1003D00021F0C001154A11601146096841F0400141
:1003E00011601BE011491831096841F008010F4AFA
:1003F00018321160002000E0401C0D498842FBDBF0
:100400000A491831096841F40021084A183211607C
:10041000002000E0401C06498842FBDBE2E70000C8
:100420000010024000000450000304500004004883
:1004300040420F004FF04070E1EE100A704700009C
:10044000500400080000002060060000C8010008F9
:0400000508000211DC
:00000001FF
